{
  "contractName": "Restaurantfns",
  "abi": [
    {
      "inputs": [],
      "payable": false,
      "stateMutability": "nonpayable",
      "type": "constructor"
    },
    {
      "anonymous": false,
      "inputs": [
        {
          "indexed": false,
          "internalType": "uint256",
          "name": "id",
          "type": "uint256"
        },
        {
          "indexed": false,
          "internalType": "bool",
          "name": "available",
          "type": "bool"
        }
      ],
      "name": "Not_available",
      "type": "event"
    },
    {
      "anonymous": false,
      "inputs": [
        {
          "indexed": false,
          "internalType": "uint256",
          "name": "id",
          "type": "uint256"
        },
        {
          "indexed": false,
          "internalType": "string",
          "name": "res_name",
          "type": "string"
        },
        {
          "indexed": false,
          "internalType": "bool",
          "name": "available",
          "type": "bool"
        }
      ],
      "name": "Res_added",
      "type": "event"
    },
    {
      "constant": true,
      "inputs": [],
      "name": "res_count",
      "outputs": [
        {
          "internalType": "uint256",
          "name": "",
          "type": "uint256"
        }
      ],
      "payable": false,
      "stateMutability": "view",
      "type": "function"
    },
    {
      "constant": true,
      "inputs": [
        {
          "internalType": "uint256",
          "name": "",
          "type": "uint256"
        }
      ],
      "name": "restaurants",
      "outputs": [
        {
          "internalType": "uint256",
          "name": "id",
          "type": "uint256"
        },
        {
          "internalType": "string",
          "name": "res_name",
          "type": "string"
        },
        {
          "internalType": "bool",
          "name": "available",
          "type": "bool"
        }
      ],
      "payable": false,
      "stateMutability": "view",
      "type": "function"
    },
    {
      "constant": false,
      "inputs": [
        {
          "internalType": "string",
          "name": "_name",
          "type": "string"
        }
      ],
      "name": "add_restaurant",
      "outputs": [],
      "payable": false,
      "stateMutability": "nonpayable",
      "type": "function"
    },
    {
      "constant": false,
      "inputs": [
        {
          "internalType": "uint256",
          "name": "_id",
          "type": "uint256"
        }
      ],
      "name": "Res_not_opened",
      "outputs": [],
      "payable": false,
      "stateMutability": "nonpayable",
      "type": "function"
    }
  ],
  "bytecode": "0x60806040526000805534801561001457600080fd5b50604080518082019091526009815268141a5e9e9848121d5d60ba1b6020820152610047906001600160e01b0361004c16565b61020b565b600080546001908101808355604080516060810182528281526020808201878152828401879052938652848152919094208451815591518051929361009993908501929190910190610170565b5060408201518160020160006101000a81548160ff0219169083151502179055509050507f55e523af5cc8f4628bb72dc6a44e914dc339c6280fe9b9c0eb5f6f1e9f2b57fe600054826000604051808481526020018060200183151515158152602001828103825284818151815260200191508051906020019080838360005b83811015610131578181015183820152602001610119565b50505050905090810190601f16801561015e5780820380516001836020036101000a031916815260200191505b5094505050505060405180910390a150565b828054600181600116156101000203166002900490600052602060002090601f016020900481019282601f106101b157805160ff19168380011785556101de565b828001600101855582156101de579182015b828111156101de5782518255916020019190600101906101c3565b506101ea9291506101ee565b5090565b61020891905b808211156101ea57600081556001016101f4565b90565b6106038061021a6000396000f3fe608060405234801561001057600080fd5b506004361061004c5760003560e01c80631453869014610051578063428dad7c146100705780637fdd2cf91461008a578063ad5461d814610130575b600080fd5b61006e6004803603602081101561006757600080fd5b50356101d7565b005b610078610337565b60408051918252519081900360200190f35b61006e600480360360208110156100a057600080fd5b8101906020810181356401000000008111156100bb57600080fd5b8201836020820111156100cd57600080fd5b803590602001918460018302840111640100000000831117156100ef57600080fd5b91908080601f01602080910402602001604051908101604052809392919081815260200183838082843760009201919091525092955061033d945050505050565b61014d6004803603602081101561014657600080fd5b5035610461565b604051808481526020018060200183151515158152602001828103825284818151815260200191508051906020019080838360005b8381101561019a578181015183820152602001610182565b50505050905090810190601f1680156101c75780820380516001836020036101000a031916815260200191505b5094505050505060405180910390f35b6101df610510565b60008281526001602081815260409283902083516060810185528154815281840180548651600296821615610100026000190190911695909504601f810185900485028601850190965285855290949193858401939092908301828280156102885780601f1061025d57610100808354040283529160200191610288565b820191906000526020600020905b81548152906001019060200180831161026b57829003601f168201915b50505091835250506002919091015460ff161515602091820152604080830180511590526000858152600180845291902083518155838301518051949550859491936102d993850192910190610533565b50604091820151600291909101805460ff1916911515919091179055818101518151848152901515602082015281517f02a7bb58b534512391e9103c88360763aa5ea061c37464081bfc6b052b4e87a5929181900390910190a15050565b60005481565b600080546001908101808355604080516060810182528281526020808201878152828401879052938652848152919094208451815591518051929361038a93908501929190910190610533565b5060408201518160020160006101000a81548160ff0219169083151502179055509050507f55e523af5cc8f4628bb72dc6a44e914dc339c6280fe9b9c0eb5f6f1e9f2b57fe600054826000604051808481526020018060200183151515158152602001828103825284818151815260200191508051906020019080838360005b8381101561042257818101518382015260200161040a565b50505050905090810190601f16801561044f5780820380516001836020036101000a031916815260200191505b5094505050505060405180910390a150565b600160208181526000928352604092839020805481840180548651600296821615610100026000190190911695909504601f810185900485028601850190965285855290949193929091908301828280156104fd5780601f106104d2576101008083540402835291602001916104fd565b820191906000526020600020905b8154815290600101906020018083116104e057829003601f168201915b5050506002909301549192505060ff1683565b604051806060016040528060008152602001606081526020016000151581525090565b828054600181600116156101000203166002900490600052602060002090601f016020900481019282601f1061057457805160ff19168380011785556105a1565b828001600101855582156105a1579182015b828111156105a1578251825591602001919060010190610586565b506105ad9291506105b1565b5090565b6105cb91905b808211156105ad57600081556001016105b7565b9056fea265627a7a72315820a9e3d7678ea41ce0cb6085a6cf3dc3dfd8db8d8ccc28dffb1b1992875486330f64736f6c63430005100032",
  "source": "pragma solidity ^0.5.0;\n\ncontract Restaurantfns {\n\n    uint public res_count = 0;\n\n    struct Restaurant {\n    uint id;\n    string res_name;\n    bool available;\n    }\n\n  mapping(uint => Restaurant) public restaurants;\n\n  event Res_added(\n    uint id,\n    string res_name,\n    bool available\n  );\n\n  event Not_available(\n    uint id,\n    bool available\n  );\n\n  constructor() public {\n    add_restaurant(\"Pizza Hut\");\n  }\n\n  function add_restaurant(string memory _name) public {\n    res_count ++;\n    restaurants[res_count] = Restaurant(res_count,_name, false);\n    emit Res_added(res_count, _name, false);\n  }\n\n  function Res_not_opened(uint _id) public {\n    Restaurant memory _res = restaurants[_id];\n    _res.available = !_res.available;\n    restaurants[_id] = _res;\n    emit Not_available(_id,_res.available);\n    }\n\n}",
  "sourcePath": "/home/lenova/To-do-list/contracts/Restaurantfns.sol",
  "compiler": {
    "name": "solc",
    "version": "0.5.16+commit.9c3226ce.Emscripten.clang"
  },
  "schemaVersion": "3.3.0",
  "updatedAt": "2020-10-15T11:05:23.973Z",
  "networkType": "ethereum",
  "devdoc": {
    "methods": {}
  },
  "userdoc": {
    "methods": {}
  }
}